:020000040000FA
:060000000A128A110E280D
:10000800FE00030EF0000A08F1007F08F2000A1251
:100018008A15D42B0A128A1111288317C030FD00C3
:100028001730FE004330FF00B03084000A168A11F2
:100038006A270A128A118313C830FD000830FE00AF
:10004800A530FF00A03084000A168A116A270A1218
:100058008A11831790308400B0300A128A11F4276D
:100068000A128A118313C8308400E3300A128A11F5
:10007800F4270A128A11EF01F801F901FA01830144
:100088000A128A11892B831203132D08B7008030B6
:10009800B7052D08B2003207BD00AC1F54285528FB
:1000A80056283D143D0803195A285B286A283D0A3A
:1000B800031D5F28602868280030AD000030AC00C0
:1000C8000030AB000030AA00AC1772280030AD0039
:1000D8000030AC000030AB000030AA003108803995
:1000E800B7063108B2003207BC00B01F7C287D2853
:1000F8007E283C143C0803198228832892283C0A4D
:10010800031D8728882890280030B1000030B000EF
:100118000030AF000030AE00B0179A280030B100B0
:100128000030B0000030AF000030AE003C080319CA
:100138009E289F28A4283D08031DA328A428AD288D
:100148000030AD000030AC000030AB000030AA0039
:10015800882B2A08F30030080A128A15F6200A129A
:100168008A11740883120313C3007308C20042087B
:10017800B200B301B401B5013508BB003408BA00B8
:100188003308B9003208B8004308B200B301B4011B
:10019800B5013508C1003408C0003308BF00320873
:1001A800BE002B08F3002F080A128A15F6200A123F
:1001B8008A11740883120313C3007308C20042082B
:1001C800B200B301B401B5013208B807330803110E
:1001D8000318013E0319F128B9073408031103185D
:1001E800013E0319F828BA07350803110318013E20
:1001F8000319FF28BB074308B200B301B401B501D6
:100208003208BE07330803110318013E03190D29EC
:10021800BF07340803110318013E03191429C00746
:10022800350803110318013E03191B29C1072C08BF
:10023800F3002E080A128A15F6200A128A11740889
:1002480083120313C3007308C2004208B200B3014B
:10025800B401B5013208B807330803110318013E89
:1002680003193729B907340803110318013E031984
:100278003E29BA07350803110318013E0319452919
:10028800BB074308B200B301B401B5013208BE0789
:10029800330803110318013E03195329BF07340813
:1002A80003110318013E03195A29C0073508031121
:1002B8000318013E03196129C1070830B200031071
:1002C800B80DB90DBA0DBB0DB20B63292B08F3009D
:1002D8002E080A128A15F6200A128A117408831247
:1002E8000313C3007308C2004208B2004308B300F6
:1002F800B401B5013208B807330803110318013EE9
:1003080003198729B907340803110318013E031993
:100318008E29BA07350803110318013E03199529D8
:10032800BB072A08F3002F080A128A15F6200A12BA
:100338008A11740883120313C3007308C2004208A9
:10034800B2004308B300B401B5013208B807330856
:1003580003110318013E0319B229B9073408031120
:100368000318013E0319B929BA0735080311031800
:10037800013E0319C029BB070830B2000310B80DAD
:10038800B90DBA0DBB0DB20BC2292A08F3002E080D
:100398000A128A15F6200A128A11740883120313A6
:1003A800C3007308C2004208B2004308B300B40196
:1003B800B5013208B807330803110318013E0319C1
:1003C800E629B907340803110318013E0319ED297A
:1003D800BA07350803110318013E0319F429BB07AE
:1003E8002B08F30030080A128A15F6200A128A111F
:1003F800740883120313C3007308C2004208B200D2
:100408004308B300B401B5013208BE07330803112D
:100418000318013E0319112ABF07340803110318F2
:10042800013E0319182AC007350803110318013EB5
:1004380003191F2AC1072C08F3002F080A128A156E
:10044800F6200A128A11740883120313C300730872
:10045800C2004208B2004308B300B401B501320833
:10046800BE07330803110318013E03193C2ABF07CE
:10047800340803110318013E0319432AC00735083D
:1004880003110318013E03194A2AC1072C08F30077
:1004980030080A128A15F6200A128A117408831283
:1004A8000313C3007308C2004208B2004308B30034
:1004B800B401B50108300310B20DB30DB40DB50D7C
:1004C800FF3E031D5F2A3208BE07330803110318D5
:1004D800013E0319702ABF07340803110318013EAF
:1004E8000319772AC007350803110318013E0319B9
:1004F8007E2AC1073808B2003908B3003A08B400A8
:100508003B08B50018300310B50CB40CB30CB20C92
:10051800FF3E031D872A3208BE073308031103185C
:10052800013E0319982ABF07340803110318013E36
:1005380003199F2AC007350803110318013E031940
:10054800A62AC1070830B2000310B80DB90DBA0DBC
:10055800BB0DB20BA82A3D083C07B200B301B30D8E
:100568003208823EC20033080318013EFF3EC30032
:10057800DA2A0130B2000310BE0DBF0DC00DC10D47
:10058800B20BBF2ABB1FC92ACA2ACB2A3E14013084
:10059800B2000310B80DB90DBA0DBB0DB20BCD2AC0
:1005A800FF30C2070318C30AFF30C307C01FDD2A84
:1005B800DE2ABD2ABC01BB1FE22AE32AFF2AFF303C
:1005C8003805B200FF303905B300FF303A05B400F2
:1005D8007F303B05B5003508340433043204031971
:1005E800F62AF72AFA2A0130BC00FF2A3E1CFD2A07
:1005F800FE2AFF2AF72A3C080319032B042B352B64
:100608000130BE07003003180130BF07003003185F
:100618000130C007003003180130C107411C152BF9
:10062800162B352B3E08B2003F08B3004008B40033
:100638004108B5000130B600350DB50CB40CB30C4B
:10064800B20CB60B202B3508C1003408C0003308A3
:10065800BF003208BE000130C2070318C30A0030C9
:10066800C3074308803AFF0080307F02031D3E2BFA
:10067800FF304202031C412B422B4D2B7F3083124B
:100688000313C1008030C0000030BF000030BE003E
:100698007E2B831203134308803AFF0080307F02C9
:1006A800031D582B0130420203185B2B5C2B682B6F
:1006B800003083120313C1000030C0000030BF00B7
:1006C8000030BE00B7017E2B831203134208BD0021
:1006D800FF30BE05FF30BF057F30C0050030C105C3
:1006E8003D1C772B782B792BC0173D08B2000310DF
:1006F800320CC1003708C1044108AD004008AC0005
:100708003F08AB003E08AA000800713083160313A7
:100718008F000A128A151F210A128A110A168A11D5
:100728000C270A128A1183160313890183160317EB
:10073800890183160313880105148510051585158D
:100748008516851718308316031788000A168A112C
:1007580023270A128A110A168A1114270A128A11E3
:10076800FA018312031388018A2C0A168A11332787
:100778000A128A1183120313A0018B30A1000030E2
:100788000A128A1549210A128A110A128A152D2776
:100798000A128A11831203136F03031DD42BD52B5E
:1007A800DC2B0130FA0083160313D401D501F12B99
:1007B8006F08031DE02BE12BE32BFA01F12B02302C
:1007C8006F06031DE82BE92BF12B0530FA00831681
:1007D8000313CC01CD01D001D1018312EF018A2C82
:1007E8000A128A150D250A128A110430831203137E
:1007F8006F06031D002C012C0E2C0230FA00831604
:100808000313CE01CF01D401D50183120313EF01E5
:10081800F8011A2C78080319122C132C1A2C0430FE
:10082800FA0083160313D201D301F80106308312AC
:100838000313EE001330ED00AD30EC00EC0B222C6E
:10084800ED0B222CEE0B222C8A2C85140A128A1509
:100858001A220A128A1178080319332C342C382CDE
:100868000130FA00F8018A2C83120313851F3D2CEE
:100878003E2C8A2CFA018A2C0A128A11AB240A12FD
:100888008A1178080319492C4A2C8A2C0530FA0059
:10089800362C0A128A15CD200A128A1183120313E4
:1008A8006F03031D582C592C5C2C0330FA00F12BD4
:1008B800831603135C080319622C632CF12B013097
:1008C800FA00D401D501DC01F12B0A168A1133276D
:1008D8000A128A1183120313A0016130A1000030AB
:1008E8000A128A1549210A128A110A128A156826DB
:1008F8000A128A11831603135B080319842C852CAA
:100908008A2CFA01D001D101DB018A2C7A088312E2
:100918000313EC00ED016D08003A0319942C8A2C9E
:100928006C08003A0319B92B013A0319F42B033A5E
:100938000319292C013A0319402C073A03194D2CA5
:10094800013A0319692C8A2C0A128A110E28A03040
:1009580083120313B1000030B2000130B30000303D
:10096800B400AB01AC010A168A1133270A128A11A6
:1009780083120313A0018430A10000300A128A15E3
:1009880049210A128A1183120313A701A8018312AD
:10099800031333083104AB0034083204AC002B08CD
:1009A8008800063083120313A6001330A500AD306B
:1009B800A400A40BDD2CA50BDD2CA60BDD2C8312CB
:1009C80003133208A5003108A4000310A50CA40CD9
:1009D8002408B1002508B2000310330DB300340D0C
:1009E800B40033083104AB0034083204AC002B08DF
:1009F8008800063083120313A6001330A500AD301B
:100A0800A400A40B052DA50B052DA60B052D8312FF
:100A1800031333083104AB0034083204AC0003106C
:100A2800310DB100320DB2000310330DB300340D97
:100A3800B4000130A7070318A80A0030A80728083F
:100A4800803AFF0080307F02031D2C2D02302702E0
:100A5800031C2F2D302DCB2CA03083120313B5008F
:100A68000030B6000830AF000030B000AD01AE0174
:100A7800A901AA01831203132F083504AD00300819
:100A88003604AE002D088800063083120313A60032
:100A98001330A500AD30A400A40B502DA50B502D8C
:100AA800A60B502D831203133608A5003508A400A1
:100AB8000310A50CA40C2408B5002508B6003008BE
:100AC800A5002F08A4000310A50CA40C2408AF004F
:100AD8002508B0002F083504AD0030083604AE00F4
:100AE8002D088800063083120313A6001330A500D2
:100AF800AD30A400A40B7E2DA50B7E2DA60B7E2D5C
:100B08008312031335083504AD0036083604AE00E9
:100B18000310350DB500360DB6003008A5002F08B6
:100B2800A4000310A50CA40C2408AF002508B000ED
:100B38000130A9070318AA0A0030AA072A08803A30
:100B4800FF0080307F02031DAB2D02302902031CF9
:100B5800AE2DAF2D3E2D0800831203132B08840001
:100B6800000884000A128A150A200A128A11253AF6
:100B7800031DBF2DC02D822E2B0884000130800755
:100B880083160313C801C9010030D800FF30CA001A
:100B9800FF30CB00831203132B0884000008B00039
:100BA800300884000A128A150A200A128A11643A47
:100BB8000319DF2DE02DEC2D300884000A128A1568
:100BC8000A200A128A11693A031DEB2DEC2D7B2E9F
:100BD8002C08840083130008FF00023080077F0878
:100BE80084000008B100840A0008B2002B088400C1
:100BF8003008013E80002030B500B21B042E062EBE
:100C08000130072E0030AF000130B5023508903EA4
:100C180084000A30F3000030F4003208F60031088E
:100C2800F5000A128A1557220A128A1174088312CB
:100C38000313A3007308A2000A168A1153270A1285
:100C48008A11831203132208303E831780000A306A
:100C5800F3000030F4003208F6003108F5000A12FB
:100C68008A156F230A128A11740883120313B200BB
:100C78007308B100310832040319432E442E492E5B
:100C88003508031D482E492E082E350803194D2E08
:100C98004E2E742E2F080319522E532E742E013007
:100CA800B5023508903E84002D3083178000742EDD
:100CB8003508903E840083170008AD00AE012D086A
:100CC800F3002E08F4002908F5002A08F6000A1295
:100CD8008A156D240A128A11013083120313B5078D
:100CE80020303506031D792E7A2E5C2E9B2E83121A
:100CF80003132B088400013080079B2E2B088400E7
:100D0800000884000A128A150A200A128A11AD0006
:100D1800AE012D08F3002E08F4002908F5002A0872
:100D2800F6000A128A156D240A128A117B2E080011
:100D3800B03084002030F3001030F400831700082E
:100D4800F500040AF6007308840083137508800010
:100D5800040AF30076088400F40BA22E831203130E
:100D6800B001B101B2018312031331083204031D2B
:100D7800BE2EBF2EE42EFE3086004230F300F30B69
:100D8800C32E0000C92E2008B00083120313061ECC
:100D9800CE2ECF2EC72ED22E2108B000861ED52EDD
:100DA800D62ED02ED92E2208B000061FDC2EDD2E1E
:100DB800D72EE02E2308B000861FE32EE42EDE2E69
:100DC80031033204031DE92EEA2E0F2FFD30860071
:100DD8004230F300F30BEE2E0000F42E2408B0008E
:100DE80083120313061EF92EFA2EF22EFD2E250865
:100DF800B000861E002F012FFB2E042F2608B000FE
:100E0800061F072F082F022F0B2F2708B000861F59
:100E18000E2F0F2F092F023031063204031D152F14
:100E2800162F3B2FFB3086004230F300F30B1A2FAE
:100E38000000202F2808B00083120313061E252F58
:100E4800262F1E2F292F2908B000861E2C2F2D2F64
:100E5800272F302F2A08B000061F332F342F2E2FAC
:100E6800372F2B08B000861F3A2F3B2F352F033022
:100E780031063204031D412F422F672FF7308600B9
:100E88004230F300F30B462F00004C2F2C08B00023
:100E980083120313061E512F522F4A2F552F2D0848
:100EA800B000861E582F592F532F5C2F2E08B000E4
:100EB800061F5F2F602F5A2F632F2F08B000861F41
:100EC800662F672F612F0130B1070318B20A00306F
:100ED800B2073208803AFF0080307F02031D762F68
:100EE80004303102031C792F7A2FB72E8312031393
:100EF80030080800031083120313460D470DCD0078
:100F08004D08031D882F892F922F0030C70000300D
:100F1800C6000030C5000030C400F32F4408C800E4
:100F28004508C9004608CA004708CB001F3003100F
:100F3800CB0CCA0CC90CC80CFF3E031D9B2F4808DC
:100F4800CC00C617FF30C405FF30C505FF30C60505
:100F58000030C7059630CD02CD1FB32FB42FCC2F4C
:100F68004D08803A973E0318BA2FBB2FBC2F892F04
:100F780001300310C70CC60CC50CC40CFF3E031D82
:100F8800BD2F0130CD07031DCA2FCB2FBC2FE32F58
:100F980020304D02031CD12FD22FDE2F892F013094
:100FA800C8000310C40DC50DC60DC70DC80BD52F3D
:100FB8000130CD024D08031DE22FE32FD32F4C083B
:100FC8000319E72FE82FF32FC409C509C609C70974
:100FD800C40A0319C50A0319C60A0319C70A08006F
:100FE80064008001840A0406031900340406F52FFE
:020FF8000800EF
:10100000FF1B0A2883137F1883170008840A03191B
:10101000FF0A080008308A000408840A82070034A6
:10102000323430343234313431340034733469344E
:101030007334743465346D346134203462346C3408
:101040006F34713475346534613464346F34003412
:1010500043346C34613476346534203449346E342E
:1010600063346F347234723465346334743461348D
:10107000003450346934203444342034203454341F
:10108000203420344334203420346F3468346D34B9
:10109000003443346C346134763465342034433462
:1010A0006F347234723465346334743461340034B0
:1010B00054343A3420342534643420344C343A34B3
:1010C000203425346434003450347234653473343D
:1010D00073342034613420344B3465347934003433
:1010E00042344C344F345134553445344134443413
:1010F0004F3400344D344F344E34493454344F342B
:10110000523445344F3400344534563445344E342B
:1011100054344F345334003441344C344134523419
:101120004D344134003441344C3445345234543419
:0E1130004134003449344E34493454340034D0
:10114A0000340E341134113411340A341B3400348F
:10115A000034043411340E34043404340A3411349F
:10116A000034043400340E34153404340A3411348F
:10117A001B3400340A340A34003400340E34113477
:10118A001B3400340A340A34003411340E34003467
:10119A000A168A1133270A128A1583120313A00129
:1011AA007530A10000300A128A1549210A128A15DF
:1011BA00063083120313A6001330A500AD30A40035
:1011CA00A40BE528A50BE528A60BE5288312031333
:1011DA00051CF028F128F4280130EF00F528EF016A
:1011EA00080083120313A400A001A1017308F500EB
:1011FA00F6017508A2007608A300241C0529062911
:10120A000C292208A0070318A10A2308A107013004
:10121A000310A20DA30DFF3E031D0D290310A40CFC
:10122A002408031D19291A2902292108F400200873
:10123A00F30008008316031387012730F700F530FF
:10124A00F600F60B2629F70B262902300A128A1510
:10125A0075210A128A1528300A128A1575210A126E
:10126A008A1501300A128A1575210A128A150C305C
:10127A000A128A1575210A128A1506300A128A1567
:10128A0075210A128A15080083120313A20002307C
:10129A0022020318512952295D2920080F39803862
:1012AA00A30023080A128A1575210A128A156729CA
:1012BA0020080F39C038A30023080A128A1575219D
:1012CA000A128A15831203132108F6000030031D3F
:1012DA008030F7000A168A11DA270A128A150800DE
:1012EA00F500F0307505F3008312031307080F3970
:1012FA0073048700071087140000831203138710F2
:10130A000330F4009730F300F30B8929F40B892991
:10131A008E297508F30004300310F30DFF3E031DF8
:10132A0091298312031307080F397304870087145E
:10133A0000008312031387100830F400C930F30049
:10134A00F30BA529F40BA529AA290800F500F0300A
:10135A007505F3008312031307080F397304870016
:10136A000714871400008312031387100330F40054
:10137A009730F300F30BBF29F40BBF29C429750872
:10138A00F30004300310F30DFF3E031DC729831237
:10139A00031307080F3973048700871400008312A8
:1013AA00031387100830F400C930F300F30BDB296C
:1013BA00F40BDB29E029080073080F3983120313A1
:1013CA00A000A00DA00D1F082006C33920069F000B
:1013DA001F14133083120313A000A00BF2298312E7
:1013EA0003139F149F18FA29FB29F7291E08A00046
:1013FA00A1012008F5002108F6007508A100A00146
:10140A00831603131E08831203132007A200003059
:10141A00031801302107A3002208F5002308F6006B
:10142A007608F4007508F30008000A168A113327B3
:10143A000A128A1583120313A0017D30A10000301D
:10144A000A128A1549210A128A15063083120313D1
:10145A00A6001330A500AD30A400A40B322AA50BB8
:10146A00322AA60B322A831603135A0803193E2A74
:10147A003F2A432ADA018312031385108312851F38
:10148A00472A482A4A2AFA01562A780803194E2A6C
:10149A004F2A562A0130FA00F80183160313D401A1
:1014AA00D501080083120313A101F61F5D2A5E2AE3
:1014BA00652AF509F609F50A0319F60A0130A100A9
:1014CA00F41F682A692A6E2AF309F409F30A031930
:1014DA00F40A730874040319732A742AA12A0130BE
:1014EA00A000802A01300310F30DF40DFF3E031D06
:1014FA00782A0130A007F41F832A842A772A7408DD
:10150A007602031D8A2A73087502031C8D2A8E2A05
:10151A00942A7308F5027408031CF603F6020130D4
:10152A000310F40CF30CFF3E031D952A0130A002B0
:10153A00031DA02AA12A842A21080319A52AA62A5A
:10154A00AB2AF509F609F50A0319F60A7608F40032
:10155A007508F30008000130F5020030031CF60399
:10156A00F602750A031DBD2A760A031DBD2ABE2A84
:10157A00CB2AF301F4010B2B0130F3070130F407F6
:10158A000130F5020030031CF603F60273088400EA
:10159A00831300080319D22AD32AF72A740884006D
:1015AA000A128A150A200A128A15003A0319DE2A33
:1015BA00DF2AF72A750876040319E42AE52AF72AA6
:1015CA00740884000A128A150A200A128A158312DC
:1015DA000313A00073088400000820060319F62AE2
:1015EA00F72AC12A740884000A128A150A200A12E4
:1015FA008A1583120313A000730884000008A1004F
:10160A0020082102F300F401031CF40308008312EA
:10161A000313AA00A801A901642B56302A06031D48
:10162A00172B182B1A2B0914292B41302A06031DB4
:10163A001F2B202B222B8914292B52302A06031DFB
:10164A00272B282B292B09152108F4002008F30041
:10165A000A168A1179270A128A1556308312031339
:10166A002A06031D392B3A2B3C2B09104B2B4130F0
:10167A002A06031D412B422B442B89104B2B523037
:10168A002A06031D492B4A2B4B2B09112308F40068
:10169A002208F3000A168A1179270A128A15831278
:1016AA00031322082007A60023080318230A210788
:1016BA00A7002608A8070318A90A2708A9072508C2
:1016CA002902031D6A2B24082802031C6D2B6E2B8A
:1016DA00122B080083120313A101F41F752B762B1A
:1016EA007D2BF309F409F30A0319F40A0130A10066
:1016FA00F61F802B812B882BF509F609F50A0319A9
:10170A00F60A0130A106A201A301730874040319A1
:10171A008F2B902BC52B0130A0009C2B013003107E
:10172A00F30DF40DFF3E031D942B0130A007F41FA7
:10173A009F2BA02B932B01300310A20DA30DFF3E6C
:10174A00031DA12B74087602031DAD2B73087502C5
:10175A00031CB02BB12BB82B7308F5027408031CB9
:10176A00F603F602221401300310F40CF30CFF3EC8
:10177A00031DB92B0130A002031DC42BC52BA02BBE
:10178A0021080319C92BCA2BCF2BA209A309A20A24
:10179A000319A30A2308F4002208F3000800FC3006
:1017AA00831203138F0016308E0001308316031341
:1017BA00D2070318D30A0030D3075308803AFF0030
:1017CA0087307F02031DEB2BD1305202031CEE2B14
:1017DA00EF2BF52B83160313D201D3010130DC0062
:1017EA00013083160313D4070318D50A0030D5072E
:1017FA005508803AFF0093307F02031D062C89307A
:10180A005402031C092C0A2C102C83160313D4012E
:10181A00D5010130F800013083160313D0070318ED
:10182A00D10A0030D1075108803AFF0093307F0275
:10183A00031D212C89305002031C242C252C2B2C0F
:10184A0083160313D001D1010130DB000130831666
:10185A000313CE070318CF0A0030CF074F08803A88
:10186A00FF0083307F02031D3C2C21304E02031CF3
:10187A003F2C402C462C83160313CE01CF01013096
:10188A00DA00013083160313CC070318CD0A00309F
:10189A00CD074D08803AFF0081307F02031D572C87
:1018AA00F5304C02031C5A2C5B2C612C8316031353
:1018BA00CC01CD010130D900831203130C10720838
:1018CA00FF0071088A00700E8300FE0E7E0E09006A
:1018DA00750876040319722C732C792C7508760412
:1018EA00031D782C792C802C73080A128A11FC2784
:1018FA000A128A150C2D7508093E83120313A000DB
:10190A0076080318013E003EA100200884008317D0
:10191A00211C83130008A200840A0008A3002208DD
:10192A0023040319992C9A2CCC2C7508093EA00083
:10193A0076080318013E003EA100200884008317A0
:10194A00211C83130008A200840A0008A30075085A
:10195A00023EA40076080318013E003EA5002408B2
:10196A0084008317251C83130008A600840A000834
:10197A00A7002708803AA8002308803A2802031DF6
:10198A00C82C220826020318CB2CCC2C0C2D750847
:10199A0084008317761C8313000883120313A000A4
:1019AA00840A0008A1007508023EA20076080318FE
:1019BA00013E003EA300220884008317231C8313E0
:1019CA0000082007A5002108A4000318A40A801F04
:1019DA00EF2CA403831203132408A600250884000D
:1019EA008317261C8313730880007508023EA00023
:1019FA0076080318013E003EA100200884008317E0
:101A0A00211C831301308007840A0318800A080006
:101A1A000A168A1133270A128A1583120313A001A0
:101A2A006B30A10000300A128A1549210A128A1560
:101A3A00C0300A128A1575210A128A150330F3007A
:101A4A000030F4000A128A15E1210A128A15740874
:101A5A0083120313E7007308E6000430F300003032
:101A6A00F4000A128A15E1210A128A1574088312EF
:101A7A000313EB007308EA00FF30CE000330CF00F7
:101A8A0066084E02E8006708031C670A4F02E9006D
:101A9A006808F3006908F4000030F41BFF30F50011
:101AAA00F60001300A128A15B2250A128A1576083A
:101ABA0083120313B1007508B0007408AF007308ED
:101ACA00AE003D30AD002630AC003730AB003730C9
:101ADA00AA000A128A1147200A128A1583120313CE
:101AEA002D08C7002C08C6002B08C5002A08C40008
:101AFA000A128A117E270A128A15831203134508CD
:101B0A00E5004408E4005030BA004930BB006508DB
:101B1A00BD006408BC006B08BF006A08BE000A1654
:101B2A008A1192270A128A155030F6000030F700FF
:101B3A000A168A11DA270A128A1503308312031346
:101B4A006B02853003196A02031CAC2DAD2DB02D32
:101B5A000430EF00B12DEF01080083120313A40033
:101B6A0024080319B92DBA2DCE2DF61FBD2DBE2D71
:101B7A00CE2D7309A6007409A7007509A800760975
:101B8A00A900A60A0319A70A0319A80A0319A90A88
:101B9A00D62D7608A9007508A8007408A70073084E
:101BAA00A6007608750474047304031DDD2DDE2D6A
:101BBA00E72D0030F6000030F5000030F400003068
:101BCA00F300672E9630A500F52D0130A5070130E8
:101BDA000310A90CA80CA70CA60CFF3E031DED2DA3
:101BEA00FE302905031DFA2DFB2DEA2D152E013095
:101BFA00A5070130A607003003180130A7070030F7
:101C0A0003180130A807003003180130A907013072
:101C1A000310A90CA80CA70CA60CFF3E031D0D2E41
:101C2A00FF302905031D1A2E1B2EFC2D272E0130ED
:101C3A00A5020130A0000310A60DA70DA80DA90D3D
:101C4A00A00B202EA81B2A2E2B2E312E0230250265
:101C5A000318302E312E1C2E2518342E352E3D2EEB
:101C6A00FF30A605FF30A7057F30A805FF30A9057C
:101C7A000310A50C2508A000A101A201A301183098
:101C8A000310A00DA10DA20DA30DFF3E031D452EAD
:101C9A002008A6042108A7042208A8042308A904E6
:101CAA0024080319592E5A2E5F2EF61F5D2E5E2E1A
:101CBA005F2EA9172908F6002808F5002708F4005E
:101CCA002608F30008002C3083120313A000013009
:101CDA00A100F430A2000130A3004030A4001F305C
:101CEA00A50052300A128A150C230A128A150130ED
:101CFA0083120313B4000030B5008030B600003000
:101D0A00B700B201B3010130AE000030AF00831258
:101D1A00031334083604B20035083704B300320816
:101D2A008800063083120313AD001330AC00AD30C7
:101D3A00AB00AB0B9E2EAC0B9E2EAD0B9E2E8312D0
:101D4A0003133408023EB40035080318013E003E6E
:101D5A00B5003708AC003608AB000310AC0CAB0C6E
:101D6A002B08B6002C08B7000130AE070318AF0ADB
:101D7A000030AF072F08803AFF0080307F02031D32
:101D8A00C82E05302E02031CCB2ECC2E8C2E0930E9
:101D9A0083120313BA000030BB001030BC000030BD
:101DAA00BD00B801B9013A083C04B8003B083D043B
:101DBA00B90038088800063083120313AD001330C7
:101DCA00AC00AD30AB00AB0BE82EAC0BE82EAD0B84
:101DDA00E82E83120313B001B101831203133A08E8
:101DEA00023EBA003B080318013E003EBB00031046
:101DFA003C0DBC003D0DBD003A083C04B8003B0850
:101E0A003D04B90038088800063083120313AD0078
:101E1A001330AC00AD30AB00AB0B112FAC0B112F54
:101E2A00AD0B112F013083120313B0070318B10A47
:101E3A000030B1073108803AFF0080307F02031D6D
:101E4A00282F03303002031C2B2F2C2FF22E0800D0
:101E5A0083120313A0015530A10000300A128A151B
:101E6A0049210A128A1502300A128A15AB210A126E
:101E7A008A15C0300A128A1575210A128A150A12A1
:101E8A008A119C260A128A1583120313B300330897
:101E9A000319502F512F612F2A300A128A15AB21AC
:101EAA000A128A157908DD3E840083120313330867
:101EBA00831380000130F90706307902031C662F6C
:101ECA00672F442FDD30F3000130F4000430F500B1
:101EDA000030F6000A128A15B0220A128A1573080F
:101EEA007404031D792F7A2FA72F0A168A11332714
:101EFA000A128A1583120313A0013A30A100003096
:101F0A000A128A1549210A128A15F4308312031318
:101F1A00A0000130A100F430A2000130A300B830C3
:101F2A00A4000B30A50056300A128A150C230A1297
:101F3A008A1583160313D601D701013083120313BE
:101F4A00EF00F92F0A168A1133270A128A1583120B
:101F5A000313A0011930A10000300A128A15492181
:101F6A000A128A152C3083120313A0000130A10033
:101F7A00BC30A2000230A300D030A4000730A50074
:101F8A0041300A128A150C230A128A158316031382
:101F9A005608013ED60057080318013E003ED700F6
:101FAA0083120313EF0103308316031356065704F3
:101FBA00031DE02FE12FF92F0A168A1133270A127F
:101FCA008A1583120313A0010730A10000300A12F8
:101FDA008A1549210A128A15023083120313EF0067
:101FEA0083160313D601D7010A168A1133270A1258
:061FFA008A15F901080040
:102E1800F030831603138605F0308604811308000A
:102E28008B170B17831603130C14831203130C1040
:102E38009001FC308F0016308E00101408008316A5
:102E480003139F171F129F12831203131F083F3982
:102E580040389F009E01831603139E01080001302D
:102E68000A128A1575210A168A110830F700C93026
:102E7800F600F60B3D2FF70B3D2F422F080031349B
:102E880032343334413434343534363442343734DC
:102E98003834393443342A343034233444348312B4
:102EA8000313A31B582F592F5A2F652F2209A4004B
:102EB8002309A500A40A0319A50A2408A2002508C5
:102EC800A30008007E088A007F0882000A168A117B
:102ED80066270A168A118000840A04087D060319E9
:102EE8000034FF0A0319FE0A6A2F832F0330F60005
:102EF8009730F500F50B7E2FF60B7E2F832F0130D0
:102F0800F3020030031CF403F402730A031D902F2C
:102F1800740A031D902F912F7A2F08003C308312DA
:102F28000313C1003A08C2000030C300C401C50140
:102F3800CB01CC014230B6000030B7003B08B800E6
:102F48004130B9000A168A11B5270A168A11831268
:102F5800031344083A07C000400884008313800123
:102F68000800831203133808F700C92F83120313CC
:102F78003608A9003708AA007730AB003908AC003A
:102F88000A128A11B0250A168A11770884000A12D3
:102F98008A150A200A168A11003A031DD42FD52F44
:102FA800BA2F83120313B601B7010800EF2F770871
:102FB800FF00760884000A128A1500200A168A1172
:102FC8000A128A15AB210A168A110130F60703186E
:102FD800F70A0030F707770883120313FF00760813
:102FE80084000A128A1500200A168A11003A031D65
:082FF800FE2FFF2FDB2F080064
:04400E00D520FF3F7B
:00000001FF
